{
  "transactions": [
    {
      "hash": "0x9f1e7f422e228db10afdebeedb69befdfa2b83fb1cd73e04aa532c75a2235bee",
      "transactionType": "CALL",
      "contractName": null,
      "contractAddress": "0x41e15dc9e675135013196d77f1dee355444ffeb8",
      "function": "faucet(address,uint256)",
      "arguments": [
        "0x81e9F37Dd8666D9081AEa992e2DF33Df0d188C6f",
        "1000000000"
      ],
      "transaction": {
        "from": "0x81e9f37dd8666d9081aea992e2df33df0d188c6f",
        "to": "0x41e15dc9e675135013196d77f1dee355444ffeb8",
        "gas": "0xe05a",
        "value": "0x0",
        "input": "0x7b56c2b200000000000000000000000081e9f37dd8666d9081aea992e2df33df0d188c6f000000000000000000000000000000000000000000000000000000003b9aca00",
        "nonce": "0x4",
        "chainId": "0x14a34"
      },
      "additionalContracts": [],
      "isFixedGasLimit": false
    },
    {
      "hash": "0x8f947b3a0d7abf823b5a54a54c80b661cef5986fdd509a9cb94e7b4418d0e421",
      "transactionType": "CALL",
      "contractName": null,
      "contractAddress": "0xa1650118bbbfd67d52ee509a00e4422d4358528e",
      "function": "approve(address,uint256)",
      "arguments": [
        "0x41e15Dc9E675135013196D77f1dEE355444FFEb8",
        "100000000"
      ],
      "transaction": {
        "from": "0x81e9f37dd8666d9081aea992e2df33df0d188c6f",
        "to": "0xa1650118bbbfd67d52ee509a00e4422d4358528e",
        "gas": "0x10670",
        "value": "0x0",
        "input": "0x095ea7b300000000000000000000000041e15dc9e675135013196d77f1dee355444ffeb80000000000000000000000000000000000000000000000000000000005f5e100",
        "nonce": "0x5",
        "chainId": "0x14a34"
      },
      "additionalContracts": [],
      "isFixedGasLimit": false
    },
    {
      "hash": "0x97971ca8d7810edb67f121e9ec06f0805cf7d08cd0d0f4e6ea1394718b450713",
      "transactionType": "CALL",
      "contractName": null,
      "contractAddress": "0x41e15dc9e675135013196d77f1dee355444ffeb8",
      "function": "placeBet(uint256,uint256)",
      "arguments": [
        "0",
        "100000000"
      ],
      "transaction": {
        "from": "0x81e9f37dd8666d9081aea992e2df33df0d188c6f",
        "to": "0x41e15dc9e675135013196d77f1dee355444ffeb8",
        "gas": "0x25f8e",
        "value": "0x0",
        "input": "0x4afe62b500000000000000000000000000000000000000000000000000000000000000000000000000000000000000000000000000000000000000000000000005f5e100",
        "nonce": "0x6",
        "chainId": "0x14a34"
      },
      "additionalContracts": [],
      "isFixedGasLimit": false
    }
  ],
  "receipts": [
    {
      "status": "0x1",
      "cumulativeGasUsed": "0x31dd73",
      "logs": [
        {
          "address": "0xa1650118bbbfd67d52ee509a00e4422d4358528e",
          "topics": [
            "0xddf252ad1be2c89b69c2b068fc378daa952ba7f163c4a11628f55a4df523b3ef",
            "0x0000000000000000000000000000000000000000000000000000000000000000",
            "0x00000000000000000000000081e9f37dd8666d9081aea992e2df33df0d188c6f"
          ],
          "data": "0x000000000000000000000000000000000000000000000000000000003b9aca00",
          "blockHash": "0x1e43eb8b417a8fb519e05fc086306ef6721530106c5ee2f449e5bafffd6057b1",
          "blockNumber": "0x1454a21",
          "transactionHash": "0x9f1e7f422e228db10afdebeedb69befdfa2b83fb1cd73e04aa532c75a2235bee",
          "transactionIndex": "0x1e",
          "logIndex": "0x4d",
          "removed": false
        }
      ],
      "logsBloom": "0x00000000000000000000000000000000000000000000000000000000000020000000000000000000000000000000000000000000000000000000000000000000000000000000000000000008000000000000000000000000000000000000000000000000020000000000000000000800000000000000000000000010000000000000000000000000000000000000000000000000000000000000000000000002000000000000000000000000000000000000000000000200000000000000000000000002000000800000000000000000000000000000000000000000000020000000000000000000000010000000000000000000000040000000000000000000",
      "type": "0x2",
      "transactionHash": "0x9f1e7f422e228db10afdebeedb69befdfa2b83fb1cd73e04aa532c75a2235bee",
      "transactionIndex": "0x1e",
      "blockHash": "0x1e43eb8b417a8fb519e05fc086306ef6721530106c5ee2f449e5bafffd6057b1",
      "blockNumber": "0x1454a21",
      "gasUsed": "0xa26e",
      "effectiveGasPrice": "0x187d7",
      "from": "0x81e9f37dd8666d9081aea992e2df33df0d188c6f",
      "to": "0x41e15dc9e675135013196d77f1dee355444ffeb8",
      "contractAddress": null,
      "l1BaseFeeScalar": "0x44d",
      "l1BlobBaseFee": "0x1",
      "l1BlobBaseFeeScalar": "0xa118b",
      "l1Fee": "0xdb7bb1fd",
      "l1GasPrice": "0x7c97d480",
      "l1GasUsed": "0x640"
    },
    {
      "status": "0x1",
      "cumulativeGasUsed": "0x35582a",
      "logs": [
        {
          "address": "0xa1650118bbbfd67d52ee509a00e4422d4358528e",
          "topics": [
            "0x8c5be1e5ebec7d5bd14f71427d1e84f3dd0314c0f7b2291e5b200ac8c7c3b925",
            "0x00000000000000000000000081e9f37dd8666d9081aea992e2df33df0d188c6f",
            "0x00000000000000000000000041e15dc9e675135013196d77f1dee355444ffeb8"
          ],
          "data": "0x0000000000000000000000000000000000000000000000000000000005f5e100",
          "blockHash": "0x1e43eb8b417a8fb519e05fc086306ef6721530106c5ee2f449e5bafffd6057b1",
          "blockNumber": "0x1454a21",
          "transactionHash": "0x8f947b3a0d7abf823b5a54a54c80b661cef5986fdd509a9cb94e7b4418d0e421",
          "transactionIndex": "0x20",
          "logIndex": "0x52",
          "removed": false
        }
      ],
      "logsBloom": "0x00000000000000000000000000000000000000000000000000000000000020000000000000000000000000000000000000000000000000000000000000200000000000000000000100000000000000000000000000000000000000000000000000000000000000000000000000000000000000000000000000000000000000000000000000000000000000000000000000000000000000000000000000000002020000000000000000000000000000000000000000000200000000000000000000000000000000800000000000000000000000000000000000000000000000000010000000000000000018000000000000000000000040000000000000000000",
      "type": "0x2",
      "transactionHash": "0x8f947b3a0d7abf823b5a54a54c80b661cef5986fdd509a9cb94e7b4418d0e421",
      "transactionIndex": "0x20",
      "blockHash": "0x1e43eb8b417a8fb519e05fc086306ef6721530106c5ee2f449e5bafffd6057b1",
      "blockNumber": "0x1454a21",
      "gasUsed": "0xb372",
      "effectiveGasPrice": "0x187d7",
      "from": "0x81e9f37dd8666d9081aea992e2df33df0d188c6f",
      "to": "0xa1650118bbbfd67d52ee509a00e4422d4358528e",
      "contractAddress": null,
      "l1BaseFeeScalar": "0x44d",
      "l1BlobBaseFee": "0x1",
      "l1BlobBaseFeeScalar": "0xa118b",
      "l1Fee": "0xdb7bb1fd",
      "l1GasPrice": "0x7c97d480",
      "l1GasUsed": "0x640"
    },
    {
      "status": "0x1",
      "cumulativeGasUsed": "0x371007",
      "logs": [
        {
          "address": "0xa1650118bbbfd67d52ee509a00e4422d4358528e",
          "topics": [
            "0xddf252ad1be2c89b69c2b068fc378daa952ba7f163c4a11628f55a4df523b3ef",
            "0x00000000000000000000000081e9f37dd8666d9081aea992e2df33df0d188c6f",
            "0x00000000000000000000000041e15dc9e675135013196d77f1dee355444ffeb8"
          ],
          "data": "0x0000000000000000000000000000000000000000000000000000000005f5e100",
          "blockHash": "0x1e43eb8b417a8fb519e05fc086306ef6721530106c5ee2f449e5bafffd6057b1",
          "blockNumber": "0x1454a21",
          "transactionHash": "0x97971ca8d7810edb67f121e9ec06f0805cf7d08cd0d0f4e6ea1394718b450713",
          "transactionIndex": "0x21",
          "logIndex": "0x53",
          "removed": false
        },
        {
          "address": "0x41e15dc9e675135013196d77f1dee355444ffeb8",
          "topics": [
            "0x001ecf1d0c4d22f324b3ecb9cdf0e5f772bc74ac104e6626f4b3845433d03105"
          ],
          "data": "0x00000000000000000000000081e9f37dd8666d9081aea992e2df33df0d188c6f00000000000000000000000000000000000000000000000000000000000000000000000000000000000000000000000000000000000000000000000005f5e100",
          "blockHash": "0x1e43eb8b417a8fb519e05fc086306ef6721530106c5ee2f449e5bafffd6057b1",
          "blockNumber": "0x1454a21",
          "transactionHash": "0x97971ca8d7810edb67f121e9ec06f0805cf7d08cd0d0f4e6ea1394718b450713",
          "transactionIndex": "0x21",
          "logIndex": "0x54",
          "removed": false
        }
      ],
      "logsBloom": "0x00000000000000000000000000000000008000000000000000000000000020000000000000000000000000000000000000000000000000000000000000000000000000000000000100000008000000000000000000000000000000000000000000000000000000000000000000000000000000000000000000000010000000000000000000000000000000000000000001000000000000000001000000000002000000000000000000000000000000000000000000000200000000000000000000000002000000800000020000000000000010000000000000000000000000000010000000000000000018000000000000000000000040000001000000000000",
      "type": "0x2",
      "transactionHash": "0x97971ca8d7810edb67f121e9ec06f0805cf7d08cd0d0f4e6ea1394718b450713",
      "transactionIndex": "0x21",
      "blockHash": "0x1e43eb8b417a8fb519e05fc086306ef6721530106c5ee2f449e5bafffd6057b1",
      "blockNumber": "0x1454a21",
      "gasUsed": "0x1b7dd",
      "effectiveGasPrice": "0x187d7",
      "from": "0x81e9f37dd8666d9081aea992e2df33df0d188c6f",
      "to": "0x41e15dc9e675135013196d77f1dee355444ffeb8",
      "contractAddress": null,
      "l1BaseFeeScalar": "0x44d",
      "l1BlobBaseFee": "0x1",
      "l1BlobBaseFeeScalar": "0xa118b",
      "l1Fee": "0xdb7bb1fd",
      "l1GasPrice": "0x7c97d480",
      "l1GasUsed": "0x640"
    }
  ],
  "libraries": [],
  "pending": [],
  "returns": {},
  "timestamp": 1738404643,
  "chain": 84532,
  "commit": "65b15dc"
}